{
  "_format": "hh-sol-artifact-1",
  "contractName": "Vault",
  "sourceName": "contracts/Vault.sol",
  "abi": [
    {
      "inputs": [
        {
          "internalType": "address",
          "name": "_addressPrime",
          "type": "address"
        },
        {
          "internalType": "address",
          "name": "_addressPusd",
          "type": "address"
        }
      ],
      "stateMutability": "nonpayable",
      "type": "constructor"
    },
    {
      "inputs": [],
      "name": "checkBalance",
      "outputs": [
        {
          "internalType": "uint256",
          "name": "",
          "type": "uint256"
        },
        {
          "internalType": "uint256",
          "name": "",
          "type": "uint256"
        }
      ],
      "stateMutability": "view",
      "type": "function"
    },
    {
      "inputs": [
        {
          "internalType": "uint256",
          "name": "amount",
          "type": "uint256"
        }
      ],
      "name": "deposit",
      "outputs": [],
      "stateMutability": "nonpayable",
      "type": "function"
    },
    {
      "inputs": [
        {
          "internalType": "address",
          "name": "",
          "type": "address"
        }
      ],
      "name": "depositTime",
      "outputs": [
        {
          "internalType": "uint256",
          "name": "",
          "type": "uint256"
        }
      ],
      "stateMutability": "view",
      "type": "function"
    },
    {
      "inputs": [
        {
          "internalType": "address",
          "name": "_address",
          "type": "address"
        }
      ],
      "name": "interestCalc",
      "outputs": [
        {
          "internalType": "uint256",
          "name": "",
          "type": "uint256"
        }
      ],
      "stateMutability": "view",
      "type": "function"
    },
    {
      "inputs": [
        {
          "internalType": "address",
          "name": "",
          "type": "address"
        }
      ],
      "name": "primeBalances",
      "outputs": [
        {
          "internalType": "uint256",
          "name": "",
          "type": "uint256"
        }
      ],
      "stateMutability": "view",
      "type": "function"
    },
    {
      "inputs": [
        {
          "internalType": "address",
          "name": "",
          "type": "address"
        }
      ],
      "name": "pusdBalances",
      "outputs": [
        {
          "internalType": "uint256",
          "name": "",
          "type": "uint256"
        }
      ],
      "stateMutability": "view",
      "type": "function"
    }
  ],
  "bytecode": "0x608060405234801561001057600080fd5b50604051610a63380380610a63833981810160405281019061003291906100cf565b816000806101000a81548173ffffffffffffffffffffffffffffffffffffffff021916908373ffffffffffffffffffffffffffffffffffffffff16021790555080600160006101000a81548173ffffffffffffffffffffffffffffffffffffffff021916908373ffffffffffffffffffffffffffffffffffffffff1602179055505050610154565b6000815190506100c98161013d565b92915050565b600080604083850312156100e257600080fd5b60006100f0858286016100ba565b9250506020610101858286016100ba565b9150509250929050565b60006101168261011d565b9050919050565b600073ffffffffffffffffffffffffffffffffffffffff82169050919050565b6101468161010b565b811461015157600080fd5b50565b610900806101636000396000f3fe608060405234801561001057600080fd5b50600436106100625760003560e01c8063298d3cc41461006757806346c648731461009757806365559005146100c7578063a914f395146100f7578063b6b55f2514610127578063c71daccb14610143575b600080fd5b610081600480360381019061007c9190610564565b610162565b60405161008e9190610686565b60405180910390f35b6100b160048036038101906100ac9190610564565b61017a565b6040516100be9190610686565b60405180910390f35b6100e160048036038101906100dc9190610564565b610192565b6040516100ee9190610686565b60405180910390f35b610111600480360381019061010c9190610564565b6101aa565b60405161011e9190610686565b60405180910390f35b610141600480360381019061013c91906105b6565b61028c565b005b61014b610485565b6040516101599291906106a1565b60405180910390f35b60026020528060005260406000206000915090505481565b60046020528060005260406000206000915090505481565b60036020528060005260406000206000915090505481565b600080600460008473ffffffffffffffffffffffffffffffffffffffff1673ffffffffffffffffffffffffffffffffffffffff16815260200190815260200160002054426101f891906107ab565b90506000600260003373ffffffffffffffffffffffffffffffffffffffff1673ffffffffffffffffffffffffffffffffffffffff16815260200190815260200160002054905060006301e13380905060006064846001856102599190610751565b6102639190610751565b61026d9190610720565b90506000828261027d9190610720565b90508095505050505050919050565b60008054906101000a900473ffffffffffffffffffffffffffffffffffffffff1673ffffffffffffffffffffffffffffffffffffffff1663dd62ed3e33306040518363ffffffff1660e01b81526004016102e7929190610626565b60206040518083038186803b1580156102ff57600080fd5b505afa158015610313573d6000803e3d6000fd5b505050506040513d601f19601f8201168201806040525081019061033791906105df565b5060008054906101000a900473ffffffffffffffffffffffffffffffffffffffff1673ffffffffffffffffffffffffffffffffffffffff166323b872dd3330846040518463ffffffff1660e01b81526004016103959392919061064f565b602060405180830381600087803b1580156103af57600080fd5b505af11580156103c3573d6000803e3d6000fd5b505050506040513d601f19601f820116820180604052508101906103e7919061058d565b5080600260003373ffffffffffffffffffffffffffffffffffffffff1673ffffffffffffffffffffffffffffffffffffffff168152602001908152602001600020600082825461043791906106ca565b9250508190555042600460003373ffffffffffffffffffffffffffffffffffffffff1673ffffffffffffffffffffffffffffffffffffffff1681526020019081526020016000208190555050565b600080600260003373ffffffffffffffffffffffffffffffffffffffff1673ffffffffffffffffffffffffffffffffffffffff16815260200190815260200160002054600260003373ffffffffffffffffffffffffffffffffffffffff1673ffffffffffffffffffffffffffffffffffffffff16815260200190815260200160002054915091509091565b60008135905061051f81610885565b92915050565b6000815190506105348161089c565b92915050565b600081359050610549816108b3565b92915050565b60008151905061055e816108b3565b92915050565b60006020828403121561057657600080fd5b600061058484828501610510565b91505092915050565b60006020828403121561059f57600080fd5b60006105ad84828501610525565b91505092915050565b6000602082840312156105c857600080fd5b60006105d68482850161053a565b91505092915050565b6000602082840312156105f157600080fd5b60006105ff8482850161054f565b91505092915050565b610611816107df565b82525050565b6106208161081d565b82525050565b600060408201905061063b6000830185610608565b6106486020830184610608565b9392505050565b60006060820190506106646000830186610608565b6106716020830185610608565b61067e6040830184610617565b949350505050565b600060208201905061069b6000830184610617565b92915050565b60006040820190506106b66000830185610617565b6106c36020830184610617565b9392505050565b60006106d58261081d565b91506106e08361081d565b9250827fffffffffffffffffffffffffffffffffffffffffffffffffffffffffffffffff0382111561071557610714610827565b5b828201905092915050565b600061072b8261081d565b91506107368361081d565b92508261074657610745610856565b5b828204905092915050565b600061075c8261081d565b91506107678361081d565b9250817fffffffffffffffffffffffffffffffffffffffffffffffffffffffffffffffff04831182151516156107a05761079f610827565b5b828202905092915050565b60006107b68261081d565b91506107c18361081d565b9250828210156107d4576107d3610827565b5b828203905092915050565b60006107ea826107fd565b9050919050565b60008115159050919050565b600073ffffffffffffffffffffffffffffffffffffffff82169050919050565b6000819050919050565b7f4e487b7100000000000000000000000000000000000000000000000000000000600052601160045260246000fd5b7f4e487b7100000000000000000000000000000000000000000000000000000000600052601260045260246000fd5b61088e816107df565b811461089957600080fd5b50565b6108a5816107f1565b81146108b057600080fd5b50565b6108bc8161081d565b81146108c757600080fd5b5056fea26469706673582212208356e466b83ce216fe50ecd52b35a313e2d96d5130a0725e40f8cbd95b30806f64736f6c63430008040033",
  "linkReferences": {},
  "deployedLinkReferences": {}
}