{
  "_format": "hh-sol-artifact-1",
  "contractName": "Vault",
  "sourceName": "contracts/Vault.sol",
  "abi": [
    {
      "inputs": [
        {
          "internalType": "address",
          "name": "_addressPrime",
          "type": "address"
        },
        {
          "internalType": "address",
          "name": "_addressPusd",
          "type": "address"
        }
      ],
      "stateMutability": "nonpayable",
      "type": "constructor"
    },
    {
      "inputs": [
        {
          "internalType": "address",
          "name": "",
          "type": "address"
        }
      ],
      "name": "balances",
      "outputs": [
        {
          "internalType": "uint256",
          "name": "",
          "type": "uint256"
        }
      ],
      "stateMutability": "view",
      "type": "function"
    },
    {
      "inputs": [],
      "name": "checkBalance",
      "outputs": [
        {
          "internalType": "uint256",
          "name": "",
          "type": "uint256"
        }
      ],
      "stateMutability": "view",
      "type": "function"
    },
    {
      "inputs": [
        {
          "internalType": "uint256",
          "name": "amount",
          "type": "uint256"
        }
      ],
      "name": "deposit",
      "outputs": [],
      "stateMutability": "nonpayable",
      "type": "function"
    },
    {
      "inputs": [
        {
          "internalType": "address",
          "name": "",
          "type": "address"
        }
      ],
      "name": "depositTime",
      "outputs": [
        {
          "internalType": "uint256",
          "name": "",
          "type": "uint256"
        }
      ],
      "stateMutability": "view",
      "type": "function"
    },
    {
      "inputs": [
        {
          "internalType": "address",
          "name": "_address",
          "type": "address"
        }
      ],
      "name": "interestCalc",
      "outputs": [
        {
          "internalType": "uint256",
          "name": "",
          "type": "uint256"
        }
      ],
      "stateMutability": "view",
      "type": "function"
    }
  ],
  "bytecode": "0x608060405234801561001057600080fd5b506040516109b53803806109b5833981810160405281019061003291906100cf565b816000806101000a81548173ffffffffffffffffffffffffffffffffffffffff021916908373ffffffffffffffffffffffffffffffffffffffff16021790555080600160006101000a81548173ffffffffffffffffffffffffffffffffffffffff021916908373ffffffffffffffffffffffffffffffffffffffff1602179055505050610154565b6000815190506100c98161013d565b92915050565b600080604083850312156100e257600080fd5b60006100f0858286016100ba565b9250506020610101858286016100ba565b9150509250929050565b60006101168261011d565b9050919050565b600073ffffffffffffffffffffffffffffffffffffffff82169050919050565b6101468161010b565b811461015157600080fd5b50565b610852806101636000396000f3fe608060405234801561001057600080fd5b50600436106100575760003560e01c806327e235e31461005c57806346c648731461008c578063a914f395146100bc578063b6b55f25146100ec578063c71daccb14610108575b600080fd5b610076600480360381019061007191906104df565b610126565b6040516100839190610601565b60405180910390f35b6100a660048036038101906100a191906104df565b61013e565b6040516100b39190610601565b60405180910390f35b6100d660048036038101906100d191906104df565b610156565b6040516100e39190610601565b60405180910390f35b61010660048036038101906101019190610531565b610238565b005b610110610431565b60405161011d9190610601565b60405180910390f35b60026020528060005260406000206000915090505481565b60036020528060005260406000206000915090505481565b600080600360008473ffffffffffffffffffffffffffffffffffffffff1673ffffffffffffffffffffffffffffffffffffffff16815260200190815260200160002054426101a491906106fd565b90506000600260003373ffffffffffffffffffffffffffffffffffffffff1673ffffffffffffffffffffffffffffffffffffffff16815260200190815260200160002054905060006301e133809050600060648460018561020591906106a3565b61020f91906106a3565b6102199190610672565b9050600082826102299190610672565b90508095505050505050919050565b60008054906101000a900473ffffffffffffffffffffffffffffffffffffffff1673ffffffffffffffffffffffffffffffffffffffff1663dd62ed3e33306040518363ffffffff1660e01b81526004016102939291906105a1565b60206040518083038186803b1580156102ab57600080fd5b505afa1580156102bf573d6000803e3d6000fd5b505050506040513d601f19601f820116820180604052508101906102e3919061055a565b5060008054906101000a900473ffffffffffffffffffffffffffffffffffffffff1673ffffffffffffffffffffffffffffffffffffffff166323b872dd3330846040518463ffffffff1660e01b8152600401610341939291906105ca565b602060405180830381600087803b15801561035b57600080fd5b505af115801561036f573d6000803e3d6000fd5b505050506040513d601f19601f820116820180604052508101906103939190610508565b5080600260003373ffffffffffffffffffffffffffffffffffffffff1673ffffffffffffffffffffffffffffffffffffffff16815260200190815260200160002060008282546103e3919061061c565b9250508190555042600360003373ffffffffffffffffffffffffffffffffffffffff1673ffffffffffffffffffffffffffffffffffffffff1681526020019081526020016000208190555050565b600061043c33610156565b600260003373ffffffffffffffffffffffffffffffffffffffff1673ffffffffffffffffffffffffffffffffffffffff16815260200190815260200160002054610486919061061c565b905090565b60008135905061049a816107d7565b92915050565b6000815190506104af816107ee565b92915050565b6000813590506104c481610805565b92915050565b6000815190506104d981610805565b92915050565b6000602082840312156104f157600080fd5b60006104ff8482850161048b565b91505092915050565b60006020828403121561051a57600080fd5b6000610528848285016104a0565b91505092915050565b60006020828403121561054357600080fd5b6000610551848285016104b5565b91505092915050565b60006020828403121561056c57600080fd5b600061057a848285016104ca565b91505092915050565b61058c81610731565b82525050565b61059b8161076f565b82525050565b60006040820190506105b66000830185610583565b6105c36020830184610583565b9392505050565b60006060820190506105df6000830186610583565b6105ec6020830185610583565b6105f96040830184610592565b949350505050565b60006020820190506106166000830184610592565b92915050565b60006106278261076f565b91506106328361076f565b9250827fffffffffffffffffffffffffffffffffffffffffffffffffffffffffffffffff0382111561066757610666610779565b5b828201905092915050565b600061067d8261076f565b91506106888361076f565b925082610698576106976107a8565b5b828204905092915050565b60006106ae8261076f565b91506106b98361076f565b9250817fffffffffffffffffffffffffffffffffffffffffffffffffffffffffffffffff04831182151516156106f2576106f1610779565b5b828202905092915050565b60006107088261076f565b91506107138361076f565b92508282101561072657610725610779565b5b828203905092915050565b600061073c8261074f565b9050919050565b60008115159050919050565b600073ffffffffffffffffffffffffffffffffffffffff82169050919050565b6000819050919050565b7f4e487b7100000000000000000000000000000000000000000000000000000000600052601160045260246000fd5b7f4e487b7100000000000000000000000000000000000000000000000000000000600052601260045260246000fd5b6107e081610731565b81146107eb57600080fd5b50565b6107f781610743565b811461080257600080fd5b50565b61080e8161076f565b811461081957600080fd5b5056fea26469706673582212204847caef06e9d1920088ce5cb3458097acb0c239c1c5c7b75bf60e80ed9e9fd264736f6c63430008040033",
  "linkReferences": {},
  "deployedLinkReferences": {}
}